{
  "contractName": "DataContract",
  "abi": [
    {
      "constant": true,
      "inputs": [],
      "name": "priceOfData",
      "outputs": [
        {
          "name": "",
          "type": "uint256"
        }
      ],
      "payable": false,
      "stateMutability": "view",
      "type": "function"
    },
    {
      "constant": true,
      "inputs": [
        {
          "name": "",
          "type": "address"
        }
      ],
      "name": "backers",
      "outputs": [
        {
          "name": "",
          "type": "bool"
        }
      ],
      "payable": false,
      "stateMutability": "view",
      "type": "function"
    },
    {
      "constant": true,
      "inputs": [],
      "name": "buyersCount",
      "outputs": [
        {
          "name": "",
          "type": "uint256"
        }
      ],
      "payable": false,
      "stateMutability": "view",
      "type": "function"
    },
    {
      "constant": true,
      "inputs": [],
      "name": "dataSeller",
      "outputs": [
        {
          "name": "",
          "type": "address"
        }
      ],
      "payable": false,
      "stateMutability": "view",
      "type": "function"
    },
    {
      "inputs": [
        {
          "name": "price",
          "type": "uint256"
        },
        {
          "name": "creator",
          "type": "address"
        }
      ],
      "payable": false,
      "stateMutability": "nonpayable",
      "type": "constructor"
    },
    {
      "constant": false,
      "inputs": [
        {
          "name": "newPrice",
          "type": "uint256"
        }
      ],
      "name": "changePrice",
      "outputs": [],
      "payable": false,
      "stateMutability": "nonpayable",
      "type": "function"
    },
    {
      "constant": false,
      "inputs": [],
      "name": "createBuyRequest",
      "outputs": [],
      "payable": true,
      "stateMutability": "payable",
      "type": "function"
    },
    {
      "constant": true,
      "inputs": [],
      "name": "getPrice",
      "outputs": [
        {
          "name": "",
          "type": "uint256"
        }
      ],
      "payable": false,
      "stateMutability": "view",
      "type": "function"
    },
    {
      "constant": true,
      "inputs": [],
      "name": "getBuyersCount",
      "outputs": [
        {
          "name": "",
          "type": "uint256"
        }
      ],
      "payable": false,
      "stateMutability": "view",
      "type": "function"
    }
  ],
  "bytecode": "0x6080604052600060015534801561001557600080fd5b506040516040806104358339810180604052810190808051906020019092919080519060200190929190505050806000806101000a81548173ffffffffffffffffffffffffffffffffffffffff021916908373ffffffffffffffffffffffffffffffffffffffff16021790555081600281905550505061039b8061009a6000396000f30060806040526004361061008e576000357c0100000000000000000000000000000000000000000000000000000000900463ffffffff1680632f8d28fa1461009357806398d5fdca146100be578063a2b40d19146100e9578063b85dfb8014610116578063ba49a08c14610171578063c2efcff51461019c578063d1607662146101f3578063f0d3a9df146101fd575b600080fd5b34801561009f57600080fd5b506100a8610228565b6040518082815260200191505060405180910390f35b3480156100ca57600080fd5b506100d361022e565b6040518082815260200191505060405180910390f35b3480156100f557600080fd5b5061011460048036038101908080359060200190929190505050610238565b005b34801561012257600080fd5b50610157600480360381019080803573ffffffffffffffffffffffffffffffffffffffff16906020019092919050505061029d565b604051808215151515815260200191505060405180910390f35b34801561017d57600080fd5b506101866102bd565b6040518082815260200191505060405180910390f35b3480156101a857600080fd5b506101b16102c3565b604051808273ffffffffffffffffffffffffffffffffffffffff1673ffffffffffffffffffffffffffffffffffffffff16815260200191505060405180910390f35b6101fb6102e8565b005b34801561020957600080fd5b50610212610365565b6040518082815260200191505060405180910390f35b60025481565b6000600254905090565b6000809054906101000a900473ffffffffffffffffffffffffffffffffffffffff1673ffffffffffffffffffffffffffffffffffffffff163373ffffffffffffffffffffffffffffffffffffffff1614151561029357600080fd5b8060028190555050565b60036020528060005260406000206000915054906101000a900460ff1681565b60015481565b6000809054906101000a900473ffffffffffffffffffffffffffffffffffffffff1681565b60025434101515156102f957600080fd5b6001600360003373ffffffffffffffffffffffffffffffffffffffff1673ffffffffffffffffffffffffffffffffffffffff16815260200190815260200160002060006101000a81548160ff021916908315150217905550600160008154809291906001019190505550565b60006001549050905600a165627a7a72305820c8c20f3a2bbc15bb105d542dd4e96ecc74324c237dcc7617bc740999c3d2c4360029",
  "source": "pragma solidity ^0.4.17;\r\n\r\n\r\ncontract DataContractCreator {\r\n    address[]public deployedDataContracts; //alle gemaakte adressen opslaan.\r\n\r\n    //maakt persoonlijke contracten per gebruiker.\r\n    function createDataContract(uint price) public {\r\n        address newDataContract = new DataContract(price, msg.sender);\r\n        deployedDataContracts.push(newDataContract);\r\n    }\r\n\r\n    function getDeployedContracts() public view returns(address[])  {\r\n      return deployedDataContracts;\r\n    }\r\n}\r\n\r\n\r\ncontract DataContract {\r\n\r\n    //contract variables.\r\n    address public dataSeller;\r\n    uint public buyersCount = 0;\r\n    uint public priceOfData;\r\n    mapping(address => bool) public backers; //mapps ipv array -> veel goedkoper.\r\n\r\n\r\n    constructor(uint price, address creator) public {\r\n        dataSeller = creator; //omdat dit contract door een ander contract wordt gemaakt. Creator meegeven\r\n        priceOfData = price; //verkoopprijs\r\n    }\r\n\r\n    modifier restricted(){\r\n        require(msg.sender == dataSeller);\r\n        _;\r\n    }\r\n\r\n    //get users address -> zodat deze persoon de prijs kan veranderen.\r\n    function changePrice(uint newPrice) public restricted{\r\n        priceOfData = newPrice; //prijs nog aanpassen naar ether ipv WEI.\r\n    }\r\n\r\n    function createBuyRequest() public payable {\r\n        require(msg.value >= priceOfData); //voert deze functie enkels als het voldoet aan de require\r\n\r\n        backers[msg.sender] = true;\r\n        buyersCount++;\r\n    }\r\n    function getPrice() public view returns(uint){\r\n      return priceOfData;\r\n    }\r\n\r\n    function getBuyersCount() public view returns(uint){\r\n      return buyersCount;\r\n    }\r\n\r\n}\r\n",
  "sourcePath": "F:\\xampp\\htdocs\\website\\Solidity\\contracts\\DataContractCreator.sol",
  "compiler": {
    "name": "solc",
    "version": "0.4.24+commit.e67f0147.Emscripten.clang"
  },
  "schemaVersion": "2.0.1",
  "updatedAt": "2018-12-01T15:59:33.008Z"
}