{
  "contractName": "DataContractCreator",
  "abi": [
    {
      "constant": true,
      "inputs": [
        {
          "name": "",
          "type": "uint256"
        }
      ],
      "name": "deployedDataContracts",
      "outputs": [
        {
          "name": "",
          "type": "address"
        }
      ],
      "payable": false,
      "stateMutability": "view",
      "type": "function"
    },
    {
      "constant": false,
      "inputs": [
        {
          "name": "price",
          "type": "uint256"
        }
      ],
      "name": "createDataContract",
      "outputs": [],
      "payable": false,
      "stateMutability": "nonpayable",
      "type": "function"
    },
    {
      "constant": true,
      "inputs": [],
      "name": "getDeployedContracts",
      "outputs": [
        {
          "name": "",
          "type": "address[]"
        }
      ],
      "payable": false,
      "stateMutability": "view",
      "type": "function"
    }
  ],
  "bytecode": "0x608060405234801561001057600080fd5b506106ec806100206000396000f300608060405260043610610057576000357c0100000000000000000000000000000000000000000000000000000000900463ffffffff168063826967241461005c57806396c85f1f146100c9578063aa9a068f146100f6575b600080fd5b34801561006857600080fd5b5061008760048036038101908080359060200190929190505050610162565b604051808273ffffffffffffffffffffffffffffffffffffffff1673ffffffffffffffffffffffffffffffffffffffff16815260200191505060405180910390f35b3480156100d557600080fd5b506100f4600480360381019080803590602001909291905050506101a0565b005b34801561010257600080fd5b5061010b610272565b6040518080602001828103825283818151815260200191508051906020019060200280838360005b8381101561014e578082015181840152602081019050610133565b505050509050019250505060405180910390f35b60008181548110151561017157fe5b906000526020600020016000915054906101000a900473ffffffffffffffffffffffffffffffffffffffff1681565b600081336101ac610300565b808381526020018273ffffffffffffffffffffffffffffffffffffffff1673ffffffffffffffffffffffffffffffffffffffff16815260200192505050604051809103906000f080158015610205573d6000803e3d6000fd5b50905060008190806001815401808255809150509060018203906000526020600020016000909192909190916101000a81548173ffffffffffffffffffffffffffffffffffffffff021916908373ffffffffffffffffffffffffffffffffffffffff160217905550505050565b606060008054806020026020016040519081016040528092919081815260200182805480156102f657602002820191906000526020600020905b8160009054906101000a900473ffffffffffffffffffffffffffffffffffffffff1673ffffffffffffffffffffffffffffffffffffffff16815260200190600101908083116102ac575b5050505050905090565b6040516103b080610311833901905600608060405234801561001057600080fd5b506040516040806103b08339810180604052810190808051906020019092919080519060200190929190505050806000806101000a81548173ffffffffffffffffffffffffffffffffffffffff021916908373ffffffffffffffffffffffffffffffffffffffff16021790555081600281905550505061031b806100956000396000f300608060405260043610610078576000357c0100000000000000000000000000000000000000000000000000000000900463ffffffff1680632f8d28fa1461007d578063a2b40d19146100a8578063b85dfb80146100d5578063ba49a08c14610130578063c2efcff51461015b578063d1607662146101b2575b600080fd5b34801561008957600080fd5b506100926101bc565b6040518082815260200191505060405180910390f35b3480156100b457600080fd5b506100d3600480360381019080803590602001909291905050506101c2565b005b3480156100e157600080fd5b50610116600480360381019080803573ffffffffffffffffffffffffffffffffffffffff169060200190929190505050610227565b604051808215151515815260200191505060405180910390f35b34801561013c57600080fd5b50610145610247565b6040518082815260200191505060405180910390f35b34801561016757600080fd5b5061017061024d565b604051808273ffffffffffffffffffffffffffffffffffffffff1673ffffffffffffffffffffffffffffffffffffffff16815260200191505060405180910390f35b6101ba610272565b005b60025481565b6000809054906101000a900473ffffffffffffffffffffffffffffffffffffffff1673ffffffffffffffffffffffffffffffffffffffff163373ffffffffffffffffffffffffffffffffffffffff1614151561021d57600080fd5b8060028190555050565b60036020528060005260406000206000915054906101000a900460ff1681565b60015481565b6000809054906101000a900473ffffffffffffffffffffffffffffffffffffffff1681565b600254341015151561028357600080fd5b6001600360003373ffffffffffffffffffffffffffffffffffffffff1673ffffffffffffffffffffffffffffffffffffffff16815260200190815260200160002060006101000a81548160ff0219169083151502179055506001600081548092919060010191905055505600a165627a7a723058202ecd37f2cc5bab37d3785620e536aad8cdc1a3e9bfb00426e9ee33394eae25710029a165627a7a723058202adfdeaf86f2e1a48dd17ce12b8611ae5a64210c6cbd4dd9b3e89caeeb0306fb0029",
  "source": "pragma solidity ^0.4.17;\r\n\r\n//to test this code go to : https://remix.ethereum.org/#optimize=false&version=soljson-v0.4.24+commit.e67f0147.js\r\n//past the code and go to \"run\", chose \" enviroment : javascript VM\".\r\n//\r\n\r\n contract DataContractCreator {\r\n    address[]public deployedDataContracts; //alle gemaakte adressen opslaan.\r\n\r\n    //maakt persoonlijke contracten per gebruiker.\r\n    function createDataContract(uint price) public {\r\n        address newDataContract = new DataContract(price, msg.sender);\r\n        deployedDataContracts.push(newDataContract);\r\n    }\r\n\r\n    function getDeployedContracts() public view returns(address[])  {\r\n      return deployedDataContracts;\r\n    }\r\n} \r\n\r\n\r\ncontract DataContract {\r\n\r\n    //contract variables.\r\n    address public dataSeller; //variable type address - all public variables have a getter ( automated)\r\n    uint public buyersCount;\r\n    uint public priceOfData;\r\n    mapping(address => bool) public backers; //mapps ipv array -> veel goedkoper.\r\n\r\n\r\n    constructor(uint price, address creator) public {\r\n        dataSeller = creator; //omdat dit contract door een ander contract wordt gemaakt. Creator meegeven\r\n        priceOfData = price; //verkoopprijs\r\n    }\r\n\r\n    modifier restricted(){\r\n        require(msg.sender == dataSeller);\r\n        _;\r\n    }\r\n\r\n    //get users address -> zodat deze persoon de prijs kan veranderen.\r\n    function changePrice(uint newPrice) public restricted{\r\n        priceOfData = newPrice; //prijs nog aanpassen naar ether ipv WEI.\r\n    }\r\n\r\n    function createBuyRequest() public payable {\r\n        require(msg.value >= priceOfData); //voert deze functie enkels als het voldoet aan de require\r\n\r\n        backers[msg.sender] = true;\r\n        buyersCount++;\r\n    }\r\n\r\n}\r\n",
  "sourcePath": "D:\\Users\\Robinator\\Documents\\GitHub\\TradingCentre\\website\\Solidity\\contracts\\DataContract.sol",
  "compiler": {
    "name": "solc",
    "version": "0.4.24+commit.e67f0147.Emscripten.clang"
  },
  "schemaVersion": "2.0.1",
  "updatedAt": "2018-11-17T22:01:20.997Z"
}