{
  "contractName": "DataContractCreator",
  "abi": [
    {
      "constant": true,
      "inputs": [
        {
          "name": "",
          "type": "uint256"
        }
      ],
      "name": "deployedDataContracts",
      "outputs": [
        {
          "name": "",
          "type": "address"
        }
      ],
      "payable": false,
      "stateMutability": "view",
      "type": "function"
    },
    {
      "constant": false,
      "inputs": [
        {
          "name": "price",
          "type": "uint256"
        }
      ],
      "name": "createDataContract",
      "outputs": [],
      "payable": false,
      "stateMutability": "nonpayable",
      "type": "function"
    },
    {
      "constant": true,
      "inputs": [],
      "name": "getDeployedContracts",
      "outputs": [
        {
          "name": "",
          "type": "address[]"
        }
      ],
      "payable": false,
      "stateMutability": "view",
      "type": "function"
    }
  ],
  "bytecode": "0x608060405234801561001057600080fd5b50610771806100206000396000f300608060405260043610610057576000357c0100000000000000000000000000000000000000000000000000000000900463ffffffff168063826967241461005c57806396c85f1f146100c9578063aa9a068f146100f6575b600080fd5b34801561006857600080fd5b5061008760048036038101908080359060200190929190505050610162565b604051808273ffffffffffffffffffffffffffffffffffffffff1673ffffffffffffffffffffffffffffffffffffffff16815260200191505060405180910390f35b3480156100d557600080fd5b506100f4600480360381019080803590602001909291905050506101a0565b005b34801561010257600080fd5b5061010b610272565b6040518080602001828103825283818151815260200191508051906020019060200280838360005b8381101561014e578082015181840152602081019050610133565b505050509050019250505060405180910390f35b60008181548110151561017157fe5b906000526020600020016000915054906101000a900473ffffffffffffffffffffffffffffffffffffffff1681565b600081336101ac610300565b808381526020018273ffffffffffffffffffffffffffffffffffffffff1673ffffffffffffffffffffffffffffffffffffffff16815260200192505050604051809103906000f080158015610205573d6000803e3d6000fd5b50905060008190806001815401808255809150509060018203906000526020600020016000909192909190916101000a81548173ffffffffffffffffffffffffffffffffffffffff021916908373ffffffffffffffffffffffffffffffffffffffff160217905550505050565b606060008054806020026020016040519081016040528092919081815260200182805480156102f657602002820191906000526020600020905b8160009054906101000a900473ffffffffffffffffffffffffffffffffffffffff1673ffffffffffffffffffffffffffffffffffffffff16815260200190600101908083116102ac575b5050505050905090565b604051610435806103118339019056006080604052600060015534801561001557600080fd5b506040516040806104358339810180604052810190808051906020019092919080519060200190929190505050806000806101000a81548173ffffffffffffffffffffffffffffffffffffffff021916908373ffffffffffffffffffffffffffffffffffffffff16021790555081600281905550505061039b8061009a6000396000f30060806040526004361061008e576000357c0100000000000000000000000000000000000000000000000000000000900463ffffffff1680632f8d28fa1461009357806398d5fdca146100be578063a2b40d19146100e9578063b85dfb8014610116578063ba49a08c14610171578063c2efcff51461019c578063d1607662146101f3578063f0d3a9df146101fd575b600080fd5b34801561009f57600080fd5b506100a8610228565b6040518082815260200191505060405180910390f35b3480156100ca57600080fd5b506100d361022e565b6040518082815260200191505060405180910390f35b3480156100f557600080fd5b5061011460048036038101908080359060200190929190505050610238565b005b34801561012257600080fd5b50610157600480360381019080803573ffffffffffffffffffffffffffffffffffffffff16906020019092919050505061029d565b604051808215151515815260200191505060405180910390f35b34801561017d57600080fd5b506101866102bd565b6040518082815260200191505060405180910390f35b3480156101a857600080fd5b506101b16102c3565b604051808273ffffffffffffffffffffffffffffffffffffffff1673ffffffffffffffffffffffffffffffffffffffff16815260200191505060405180910390f35b6101fb6102e8565b005b34801561020957600080fd5b50610212610365565b6040518082815260200191505060405180910390f35b60025481565b6000600254905090565b6000809054906101000a900473ffffffffffffffffffffffffffffffffffffffff1673ffffffffffffffffffffffffffffffffffffffff163373ffffffffffffffffffffffffffffffffffffffff1614151561029357600080fd5b8060028190555050565b60036020528060005260406000206000915054906101000a900460ff1681565b60015481565b6000809054906101000a900473ffffffffffffffffffffffffffffffffffffffff1681565b60025434101515156102f957600080fd5b6001600360003373ffffffffffffffffffffffffffffffffffffffff1673ffffffffffffffffffffffffffffffffffffffff16815260200190815260200160002060006101000a81548160ff021916908315150217905550600160008154809291906001019190505550565b60006001549050905600a165627a7a72305820b876f554a0127a33061cc69164154073c504e325d0199b98a102241b473f4f7b0029a165627a7a72305820a9b4663813c27bd416db21796d78e83194617284f9dd538707010e80fb2b4ce10029",
  "source": "pragma solidity ^0.4.17;\r\n\r\n\r\ncontract DataContractCreator {\r\n    address[]public deployedDataContracts; //alle gemaakte adressen opslaan.\r\n\r\n    //maakt persoonlijke contracten per gebruiker.\r\n    function createDataContract(uint price) public {\r\n        address newDataContract = new DataContract(price, msg.sender);\r\n        deployedDataContracts.push(newDataContract);\r\n    }\r\n\r\n    function getDeployedContracts() public view returns(address[])  {\r\n      return deployedDataContracts;\r\n    }\r\n}\r\n\r\n\r\ncontract DataContract {\r\n\r\n    //contract variables.\r\n    address public dataSeller;\r\n    uint public buyersCount = 0;\r\n    uint public priceOfData;\r\n    mapping(address => bool) public backers; //mapps ipv array -> veel goedkoper.\r\n\r\n\r\n    constructor(uint price, address creator) public {\r\n        dataSeller = creator; //omdat dit contract door een ander contract wordt gemaakt. Creator meegeven\r\n        priceOfData = price; //verkoopprijs\r\n    }\r\n\r\n    modifier restricted(){\r\n        require(msg.sender == dataSeller);\r\n        _;\r\n    }\r\n\r\n    //get users address -> zodat deze persoon de prijs kan veranderen.\r\n    function changePrice(uint newPrice) public restricted{\r\n        priceOfData = newPrice; //prijs nog aanpassen naar ether ipv WEI.\r\n    }\r\n\r\n    function createBuyRequest() public payable {\r\n        require(msg.value >= priceOfData); //voert deze functie enkels als het voldoet aan de require\r\n\r\n        backers[msg.sender] = true;\r\n        buyersCount++;\r\n    }\r\n    function getPrice() public view returns(uint){\r\n      return priceOfData;\r\n    }\r\n\r\n    function getBuyersCount() public view returns(uint){\r\n      return buyersCount;\r\n    }\r\n\r\n}\r\n",
  "sourcePath": "D:\\Users\\Robinator\\Documents\\GitHub\\TradingCentre\\website\\Solidity\\contracts\\DataContractCreator.sol",
  "compiler": {
    "name": "solc",
    "version": "0.4.24+commit.e67f0147.Emscripten.clang"
  },
  "schemaVersion": "2.0.1",
  "updatedAt": "2018-11-27T19:37:35.230Z"
}